:03000000020800F3
:0C080000787FE4F6D8FD75810E020847F1
:1008E200566F7465205265636F72646564004331AC
:1008F2003D0043323D0043333D0043343D00456CEF
:10090200656374726F6E696300566F74696E6720F7
:100912004D616368696E650050726573732042753C
:0509220074746F6E000B
:0C0A3100010800010900010A00010B008F
:1009CB00E4FFFEE4FDFC0DBD00010CBC04F8BDFB17
:0C09DB00F50FBF00010EBE01EABF2CE7C3
:0109E70022ED
:0E0A15008FA0C2B0C2B1D2B21209CBC2B222BF
:0E0A23008FA0D2B0C2B1D2B21209CBC2B222A1
:0B099B007F01120A157BFF7A0879E249
:1009A6008B0C8A0D890EAB0CAA0DA90E1209E860F4
:1009B60013050EE50E7002050D14F91209E8FF1273
:0509C6000A2380E2227B
:100A01007F38120A157F0C120A157F06120A157F0C
:040A110001020A15BF
:070A3E00EF2430FF020A2340
:1009620020900B050812099B1209CB3090FD2091B3
:100972000B050912099B1209CB3091FD20920B0540
:100982000A12099B1209CB3092FD20930B050B1220
:09099200099B1209CB3093FD22F0
:10088C007F01120A157BFF7A0879F01209A6AF08CE
:10089C00120A3E7FC0120A157BFF7A0879F41209FE
:1008AC00A6AF09120A3E1209CB7F01120A157BFF73
:1008BC007A0879F81209A6AF0A120A3E7FC0120A0A
:1008CC00157BFF7A0879FC1209A6AF0B120A3E12AF
:0608DC0009CB3094FD225F
:10092700120A017BFF7A0979001209A67FC0120A11
:10093700157BFF7A09790B1209A61209CB7F0112E1
:100947000A157BFF7A09791A1209A61209622094FF
:0B095700F112088C7F01120A1580E7E6
:10080C00020927E493A3F8E493A34003F68001F2D2
:10081C0008DFF48029E493A3F85407240CC8C333ED
:10082C00C4540F4420C8834004F456800146F6DFBC
:10083C00E4800B0102040810204080900A31E47E11
:10084C00019360BCA3FF543F30E509541FFEE493B1
:10085C00A360010ECF54C025E060A840B8E493A378
:10086C00FAE493A3F8E493A3C8C582C8CAC583CAA3
:10087C00F0A3C8C582C8CAC583CADFE9DEE780BE5B
:010A3D0000B8
:1009E800BB010689828A83E0225002E722BBFE020D
:0909F800E32289828A83E4932240
:00000001FF
